:100000000C943C010C9464010C9464010C94640104
:100010000C9464010C9464010C9464010C946401CC
:100020000C9464010C9464010C9411070C948307E4
:100030000C9464010C9464010C9464010C946401AC
:100040000C9464010C9464010C9464010C9464019C
:100050000C9464010C9464010C9464010C94C70624
:100060000C9464010C9464010C9464010C9464017C
:100070000C9464010C9464010C9464010C9464016C
:100080000C9464010C9464010C9464010C9464015C
:100090000C9464010C9464010C9464010C9464014C
:1000A0000C9464010C9464010C946401760279024E
:1000B00068026C0272029A029A029A027D0281021E
:1000C00085028B028F029A02950200000000000058
:1000D00000002A2B280000000000000000000000A3
:1000E000000000000000000000002C9EB4A0A1A2AF
:1000F000A434A6A7A5AE362D3738271E1F202122EF
:1001000023242526B333B62EB7B89F8485868788E7
:10011000898A8B8C8D8E8F909192939495969798D7
:10012000999A9B9C9D2F3130A3AD35040506070895
:10013000090A0B0C0D0E0F101112131415161718B7
:10014000191A1B1C1DAFB1B0B500080B000202024A
:100150000000090400000102020000052400100153
:1001600005240101010424020605240600010705F7
:10017000810310004009040100020A000000070585
:100180000202400000070583024000000403090446
:1001900012010002EF0201404123368000010102FA
:1001A000030141726475696E6F204C4C43004172CB
:1001B0006475696E6F204C656F6E6172646F0000CC
:1001C000000000240027002A002D0030000000005D
:1001D00000250028002B002E003100000000002325
:1001E00000260029002C002F00040404040403044A
:1001F00005020202020403020202020606060606C5
:1002000006040402020204040408020110408040B3
:10021000102040804080080204018040201002012C
:10022000108010204040200000000200090F000054
:10023000030401000C0000000000000000000000AA
:1002400000000000000005010906A1018502050764
:1002500019E029E71500250175019508810295012E
:1002600075088103950675081500257305071900A3
:1002700029738100C000C10911241FBECFEFDAE04D
:10028000DEBFCDBF11E0A0E0B1E0ECE9F7E102C0D4
:1002900005900D92AE33B107D9F721E0AEE3B1E09E
:1002A00001C01D92A03EB207E1F711E0CCE3D1E01E
:1002B00004C02197FE010E94C10BCB33D107C9F7BF
:1002C0000E942D0A0C94CC0B0C94000020915C0130
:1002D000211103C08FEF9FEF08955FB7F89422E0DC
:1002E0002093E9002091F20030E01216130614F476
:1002F00021E030E0422FFC0184E6415038F028989C
:1003000080935B019091F1009193F7CF2115310516
:1003100021F08091F200882319F05FBFC901089590
:100320008BE68093E800F9CFDC01FB0112968C91FB
:10033000129790E02481358182179307D1F491813F
:100340008081813A31F481E0913091F0933089F4E9
:1003500011C0813271F49B3021F482811F968C93FD
:1003600005C09A3031F4828150968C9381E00895D3
:10037000089580E00895DC01FB0188E4808389E42E
:10038000818384E482831D969C911D979F709F5B5F
:1003900093831D968D919C911E9724E09695879549
:1003A0002A95E1F78F708F5B848385E008958091B3
:1003B000530181110DC082E080934F0184E080934E
:1003C0005001109252011092510181E0809353012B
:1003D0008FE491E00895CF93DF9381E08093B101A2
:1003E0008093B20127EB31E03093B4012093B30145
:1003F0001092B6011092B50127E131E03093AE01C1
:100400002093AD011092B9011092B8011092BB0176
:100410001092BA018093BC018093BD0181EC80935E
:10042000B7010E94D701FC0121818091B10190E0C8
:10043000820F911D0897C4F5A281B381109729F40A
:100440008DEA91E0938382830EC018968D919C91E2
:100450001997009711F0DC01F8CF8DEA91E0199619
:100460009C938E93189780818093AF0181818093B4
:10047000B00190818091B201890F808380E09091DA
:10048000B101891788F49181A92FB0E0A45FBE4F14
:10049000C091B301D091B401C80FD11D28812C9314
:1004A0009F5F91838F5FEBCFDF91CF910895FC0128
:1004B00082818F5BFB01808381E0089590E0FC01E5
:1004C0003197EF30F105B0F5EA5AFF4F0C94C10BAC
:1004D000809180008F7703C0809180008F7D809312
:1004E0008000089580918000877FF9CF84B58F7751
:1004F00002C084B58F7D84BD0895809190008F7770
:1005000007C0809190008F7D03C080919000877F0D
:100510008093900008958091C0008F7703C08091F0
:10052000C0008F7D8093C00008958091C200877FB6
:100530008093C20008953FB7F89480914B01909149
:100540004C01A0914D01B0914E0126B5A89B05C06C
:100550002F3F19F00196A11DB11D3FBFBA2FA92F42
:10056000982F8827820F911DA11DB11DBC01CD01BF
:1005700042E0660F771F881F991F4A95D1F70895AB
:100580008F929F92AF92BF92CF92DF92EF92FF92A3
:100590006B017C010E949B024B015C01C114D104E0
:1005A000E104F104F1F00E949B02DC01CB01881907
:1005B0009909AA09BB09883E9340A105B10570F3CA
:1005C00021E0C21AD108E108F10888EE880E83E024
:1005D000981EA11CB11CC114D104E104F10419F747
:1005E000DDCFFF90EF90DF90CF90BF90AF909F90C6
:1005F0008F900895409140015091410120913E011A
:1006000030913F0142175307B4F49091E800957080
:10061000E1F39091E80092FD19C08093F100809180
:1006200040019091410101968F739927892B19F40C
:100630008EEF8093E80080914001909141010196F6
:10064000909341018093400181E0089580E00895F6
:10065000DF92EF92FF920F931F93CF93DF93D82EE9
:10066000F92EE42E062F10E0C8010196880F0E9493
:10067000FA0283E00E94FA02CD2DDF2D0C0F1D1F20
:10068000C017D10789F0E7FE03C0FE01849101C0C5
:1006900088810E94FA02F82E80E00E94FA028F21DF
:1006A00021968111EDCF01C081E0DF91CF911F91A3
:1006B0000F91FF90EF90DF900895DF92EF92FF92FD
:1006C0000F931F93CF93DF93D82E8A017B01E40E03
:1006D000F51EEB01CE15DF0571F0D7FE03C0FE015C
:1006E000849101C088810E94FA0221968111F2CF83
:1006F0008FEF9FEF01C0C801DF91CF911F910F9144
:10070000FF90EF90DF900895EF92FF920F931F9369
:10071000CF93DF93FB012081213851F523812232D1
:1007200039F5DC0112962C9130E044815581421755
:100730005307F1F4EC010B851C85E12CF12C01151C
:10074000110591F0F801448155816281738180E83F
:100750000E945D038F3FFFEF9F0769F0E80EF91ECF
:10076000D8010D911C91EBCF81E08F87C70105C0A7
:1007700080E090E002C08FEF9FEFDF91CF911F915B
:100780000F91FF90EF900895CF93DF93CDB7DEB731
:1007900069970FB6F894DEBF0FBECDBFFC01DB0139
:1007A0008C918F5F8C93BE016F5F7F4F89E1DB017E
:1007B0001D928A95E9F729E0298384E08A8391E0F4
:1007C0009D8383E08E832A8721E22B879C879D87E8
:1007D0009F8722E2288B27E02B8B25E02C8B8E8BAA
:1007E00020E430E0388F2F8B998F82818B83958521
:1007F0008685998B8A8B838180688D8B49E150E057
:1008000080E00E945D0369960FB6F894DEBF0FBECC
:10081000CDBFDF91CF9108950F931F93CF93DF93B7
:100820001F92CDB7DEB782E0898342E450E06AE4EC
:1008300071E080E80E945D030E94D701DC011296FE
:100840000D911C9113970115110589F0D801ED91B7
:10085000FC910280F381E02DBE016F5F7F4FC801E4
:10086000099597FD04C0F80100851185ECCF8981B9
:100870000F90DF91CF911F910F9108952FB7F894AA
:1008800087708093E9009091E800892F807295FF2E
:1008900004C09091F20080E4891B2FBF08957F92DD
:1008A0008F929F92AF92BF92CF92DF92EF92FF9280
:1008B0000F931F93CF93DF93C82E8B017A01809102
:1008C0005C01811103C08FEF9FEF74C080914401E0
:1008D00080FF05C08091E00082608093E000CE2D13
:1008E000DF2DD12C8AEFB82E8C2D8770982E8C2D71
:1008F0008072882E8C2D8074782E9AE3A92E2097F2
:1009000019F4DD2009F451C08C2D0E943E048111A0
:100910000AC0BA94BB20B9F261E070E080E090E0D8
:100920000E94C002ECCF282F30E0C217D3070CF48E
:100930008C2F9FB7F8949092E9002091E80025FF52
:1009400032C0282F30E0C21BD30B882029F0815001
:10095000A0F01092F100FBCFF801C7FE0AC0815051
:1009600050F044914093F1003196F9CF419140937A
:10097000F1008150D8F7020F131FDD2019F0A0926B
:10098000E8000AC08091E80085FD08C0A092E80058
:10099000DD24D394209739F0D12C05C0209719F489
:1009A0007110A092E8009FBFAACF5D9884E6809363
:1009B0004301C701DF91CF911F910F91FF90EF90FD
:1009C000DF90CF90BF90AF909F908F907F900895D1
:1009D000615030F02091F100FC0120830196F8CFA6
:1009E000289884E680935B010895CF92DF92EF927E
:1009F000FF920F931F93CF93DF936C017A018B01CA
:100A0000C0E0D0E0CE15DF0581F0D8016D918D01F9
:100A1000D601ED91FC910190F081E02DC601099580
:100A2000892B11F02196EECF7E01C701DF91CF9186
:100A30001F910F91FF90EF90DF90CF900895CF938B
:100A4000DF93EC0180910B01882331F083E00E9459
:100A50004F041816190634F081E090E09B838A83D6
:100A600080E090E0DF91CF910895CF93DF931F92C4
:100A7000CDB7DEB76983DC01ED91FC910280F38193
:100A8000E02D41E050E0BE016F5F7F4F09950F9070
:100A9000DF91CF91089583E08093E9008091F20087
:100AA000882319F08AE38093E800089583E00E9488
:100AB0003E0490E00895CF93DF931F92CDB7DEB749
:100AC000FC018485958597FD05C02FEF3FEF3587A5
:100AD00024870BC0CE0101960E946601019719F48C
:100AE000898190E002C08FEF9FEF0F90DF91CF914F
:100AF00008950F931F93CF93DF931F92CDB7DEB767
:100B00008C01FC018485958597FF0EC0CE0101966E
:100B10000E946601019719F4898190E002C08FEF6D
:100B20009FEFF80195878487F801848595850F905C
:100B3000DF91CF911F910F910895FC0184859585D8
:100B400097FD0BC09FB7F89482E08093E9008091F5
:100B5000F2009FBF90E0019608959FB7F89482E05D
:100B60008093E9008091F2009FBF90E00895CF92BA
:100B7000DF92EF92FF920F931F93CF93DF936C015D
:100B8000EB017B01E40EF51E00E010E0CE15DF0561
:100B900081F069916D30D1F3D601ED91FC91019016
:100BA000F081E02DC6010995892B19F00F5F1F4FC9
:100BB000EDCFC801DF91CF911F910F91FF90EF9082
:100BC000DF90CF9008950F931F93CF93DF931F92E1
:100BD000CDB7DEB78B018091BE01811105C00E94A7
:100BE000EB0181E08093BE0182E0898341E050E027
:100BF000BE016F5F7F4F8091B0010E944F0497FD4F
:100C000008C08091B00148E050E0B80180640E94C3
:100C10004F040F90DF91CF911F910F910895DC0148
:100C2000683810F068582DC0E62FF0E067FF11C05B
:100C3000E058F10981E090E001C0880FEA95EAF7F9
:100C400014969C911497892B14968C93149760E0BA
:100C500018C0E653FF4F6491611109C081E090E034
:100C600013969C938E93129780E090E0089567FF0F
:100C700008C014968C911497826014968C931497E4
:100C80006F7716968C911697681751F117968C917D
:100C90001797681729F118968C911897681701F122
:100CA00019968C9119976817D9F01A968C911A9702
:100CB0006817B1F01B968C911B97681789F0FD019E
:100CC000369680E090E02191211105C0FD01E80FEA
:100CD000F91F668305C0019686309105A1F7BECF46
:100CE000CD01BD016C5F7F4F0E94E30581E090E084
:100CF0000895EF92FF920F931F93CF938C01C62F0D
:100D00000E940F067C01C83818F068E76C0F1FC0FE
:100D1000EC2FF0E0C7FF0FC0E058F10981E090E050
:100D200001C0880FEA95EAF78095F801948189233C
:100D3000848360E00CC0E653FF4F64916623C9F0E2
:100D400067FF05C0F80184818D7F84836F77F80188
:100D500086E0662321F09681691301C016828150D6
:100D600031968111F6CFB8016C5F7F4FC8010E94A8
:100D7000E305C7019927CF911F910F91FF90EF9045
:100D80000895089580E090E008950E94C70B1F9297
:100D90000F920FB60F9211242F933F938F939F932F
:100DA000AF93BF938091470190914801A091490171
:100DB000B0914A013091460123E0230F2D3720F4F2
:100DC0000196A11DB11D05C026E8230F0296A11DA5
:100DD000B11D209346018093470190934801A09351
:100DE0004901B0934A0180914B0190914C01A0912F
:100DF0004D01B0914E010196A11DB11D80934B0193
:100E000090934C01A0934D01B0934E01BF91AF91CF
:100E10009F918F913F912F910F900FBE0F901F9038
:100E200018951F920F920FB60F9211248F939F93D4
:100E30008091E1009091E100937F9093E10083FF26
:100E40000FC01092E90091E09093EB001092EC003B
:100E500092E39093ED0010925C0198E09093F00083
:100E600082FF20C093E09093E9009091F2009923D3
:100E700019F09AE39093E80090914301992339F097
:100E800090914301915090934301992389F190915E
:100E90005B01992339F090915B01915090935B0134
:100EA000992341F184FF10C08091E2008E7E816021
:100EB0008093E2008091E1008F7E8093E100809139
:100EC00044018E7E806111C080FF16C08091E200D7
:100ED0008E7E80618093E2008091E1008E7E80931F
:100EE000E100809144018E7E81608093440104C0C2
:100EF0005D9ACDCF289AD6CF9F918F910F900FBE3C
:100F00000F901F9018951F920F920FB60F921124F9
:100F1000CF92DF92EF92FF920F931F932F933F9305
:100F20004F935F936F937F938F939F93AF93BF93F1
:100F3000EF93FF93CF93DF93CDB7DEB76C97DEBF10
:100F4000CDBF1092E9008091E80083FFFBC168E00B
:100F5000CE0145960E94E80482EF8093E8008D89D7
:100F600087FF05C09091E80090FFFCCF03C09EEF83
:100F70009093E800982F907609F0C6C09E894F891B
:100F8000588D2F89F88C91110CC0803829F48091EC
:100F900045018093F10002C01092F1001092F1001F
:100FA00045C1913051F4811141C14130510509F0E1
:100FB0003DC1809145018D7F0BC0933061F481115B
:100FC00035C14130510509F031C180914501826040
:100FD000809345012BC1953049F48091E80080FF52
:100FE000FCCF822F80688093E30020C1963009F007
:100FF0005EC00B8D1C8D22E01092E9001092410121
:1010000010924001F21232C010923F0110923E0144
:101010000E940C0499E0BE016F5F7F4FDB01E92F56
:101020001D92EA95E9F79983FA8291E09E8390EA0E
:1010300098879AEF99872091400130914101275F6D
:101040003F4F3C832B838D831092E9001092410126
:101050001092400110933F0100933E0149E050E09F
:1010600080E00E945D030E940C04E0C010933F01E9
:1010700000933E010E94D701DC0112960D911C9154
:1010800013970115110509F4BBC0D801ED91FC912E
:101090000480F581E02DBE016B5E7F4FC80109958C
:1010A000009709F0C7C0F80100851185EACF973095
:1010B00009F445C1983021F481E08093F100B6C075
:1010C000993009F0B3C0837009F039C1EDE0F1E067
:1010D00081E031E096E32081211109C08EE7809301
:1010E000EA001092EA008F8980935C019FC0809390
:1010F000E9003093EB0021912093EC009093ED00F8
:101100008F5F873041F7EACF8B8D9C8D1092E9007D
:10111000109241011092400190933F0180933E0153
:10112000898D811153C08E899D89913A49F481320C
:1011300009F005C147E050E064E071E080E0BBC029
:10114000913209F0FCC0833269F48F89988DA0E058
:10115000B0E08093000190930101A0930201B0934D
:10116000030164C0803269F48091E80082FFFCCF03
:1011700067E084E091E00E94E8048BEF8093E80050
:1011800055C0823209F052C08F8980930B01EEEF77
:10119000FFE7859194918B3F9C4D19F0E0E0F8E0DA
:1011A00002C0EEEFFAE08091040190910501A09158
:1011B0000601B0910701803B9440A105B10509F0FB
:1011C0009EC080910B0180FF79C099C00E94D70119
:1011D000FC01028113810115110509F4B0C0D80189
:1011E000ED91FC910190F081E02DBE016B5E7F4F8F
:1011F000C801099581111AC0F80100851185EBCF4E
:10120000F1E0FF1609F44EC0F3E0FF1298C08F8999
:10121000882309F44AC0823089F440E860E18EEA0C
:1012200091E00E942803882309F489C08EEF8093FF
:10123000E80088C018161906CCF381C0813029F463
:1012400040E86BE082EA91E0ECCF833009F077C0B0
:101250000E94D701DC011296ED90FC9013978E014D
:101260000F5F1F4F6801E114F10479F0D701ED9190
:10127000FC910680F781E02DB801C7010995080FA0
:10128000111DF701E084F184EECFD8011C92F60124
:1012900001900020E9F73197BF016C197D0940E00A
:1012A000C601BFCF60E971E002C06CE871E0FB01EC
:1012B000449150E080E80E945D03B8CFEE3F2AE001
:1012C000F20751F0808191818737A7E79A0721F0D3
:1012D0009093FF0A8093FE0A87E797E791838083C4
:1012E00080916000809342019BE088E10FB6F89402
:1012F000A895809360000FBE9093600097CF808187
:1013000091818737974709F091CFA8958091600028
:101310008861809360008091420180936000EE3F7D
:10132000BAE0FB0739F08091FE0A9091FF0A9183A1
:1013300080837CCF1092FF0A1092FE0A77CF81E261
:101340008093EB006C960FB6F894DEBF0FBECDBF56
:10135000DF91CF91FF91EF91BF91AF919F918F91CD
:101360007F916F915F914F913F912F911F910F91BD
:10137000FF90EF90DF90CF900F900FBE0F901F90D7
:1013800018951092600110925F0188EE93E0A0E042
:10139000B0E08093610190936201A0936301B093E8
:1013A000640183E291E090935E0180935D018FEF91
:1013B0009FEF90936A01809369011092D701109278
:1013C000D60185E391E09093D5018093D40180917B
:1013D000CC01811113C01092C7011092C60186E49E
:1013E00092E09093C9018093C8018FE290E09093BE
:1013F000CB018093CA0181E08093CC018091BE0132
:10140000811105C00E94EB0181E08093BE01E09153
:10141000B801F091B901309739F486EC91E09093DE
:10142000B9018093B8010AC080819181009711F0C1
:10143000FC01FACF86EC91E0918380832091BA0180
:101440003091BB018091CA019091CB01820F931F13
:101450009093BB018093BA010895789484B582601B
:1014600084BD84B5816084BD85B5826085BD85B548
:10147000816085BD80916E00816080936E001092C6
:101480008100809181008260809381008091810041
:1014900081608093810080918000816080938000D2
:1014A0008091910082608093910080919100816091
:1014B0008093910080919000816080939000809152
:1014C000C10084608093C1008091C10082608093DC
:1014D000C1008091C10081608093C1008091C300F0
:1014E00081608093C3008091C00082608093C000BF
:1014F0008091C20081608093C20080917A008460F4
:1015000080937A0080917A00826080937A00809143
:101510007A00816080937A0080917A00806880935D
:101520007A0010925C011092450110924401809162
:10153000D70081608093D70080EA8093D80089B576
:10154000806189BD89B5826089BD09B400FEFDCF87
:1015500061E070E080E090E00E94C0028091D800DD
:101560008F7C80618093D8008091E000807F8093A1
:10157000E0008091E1008E7E8093E1008DE0809319
:10158000E200559A209ACAE0D2E0FE0124910BEEC7
:1015900011E0F8018491882399F090E0880F991F59
:1015A000FC01E154FE4FA591B491FC01E353FE4FC1
:1015B000859194919FB7F8948C91822B8C939FBFC7
:1015C00039E2E32E32E0F32EF7018491FE01C4905C
:1015D000F801D490DD2089F081110E945E02ED2D8A
:1015E000F0E0EE0FFF1FE353FE4FA591B4919FB7BC
:1015F000F8948C918C298C939FBF8FEF9FEF9093E1
:101600006A018093690190E0C92E90E0D92EF7011C
:101610008491FE01A490F801B490BB20A9F081113F
:101620000E945E02EB2DF0E0EE0FFF1FE552FE4F31
:10163000A591B4918C918A2139F068EE73E080E035
:1016400090E00E94C002E3CF62E884ED91E00E9446
:101650000F0664E670E080E090E00E94C0026EEC4D
:1016600084ED91E00E940F0664E670E080E090E077
:101670000E94C00262E784ED91E00E940F0664E6DA
:1016800070E080E090E00E94C00265E684ED91E0A9
:101690000E940F0664E670E080E090E00E94C002C5
:1016A00069E684ED91E00E940F0664E670E080E058
:1016B00090E00E94C00263E784ED91E00E940F0673
:1016C00064E670E080E090E00E94C00265E784ED8F
:1016D00091E00E940F0664E670E080E090E00E94D6
:1016E000C0021092DA011092DB011092DC0110921C
:1016F000DD011092DE011092DF011092D80168ED39
:1017000071E084ED91E00E94E30562E884ED91E0F0
:101710000E940F0664E670E080E090E00E94C00244
:101720006EEC84ED91E00E940F0664E670E080E0CC
:1017300090E00E94C00262E684ED91E00E940F06F4
:1017400064E670E080E090E00E94C0021092DA014E
:101750001092DB011092DC011092DD011092DE018B
:101760001092DF011092D80168ED71E084ED91E0F4
:101770000E94E305C114D10409F449CF0E9400007E
:1017800046CFEE0FFF1F0590F491E02D099481E004
:0C17900090E0F8940C94CC0BF894FFCF80
:10179C00FFFFFFFF00E100000000000000C180819E
:1017AC00000000000000009401C4038403BB01008E
:1017BC0000000035051F0556054B059D055B057999
:0E17CC0005000000007906B705C206C1060040
:00000001FF
